{
  "contractName": "ExodusList",
  "abi": [
    {
      "constant": true,
      "inputs": [
        {
          "name": "",
          "type": "uint256"
        }
      ],
      "name": "exodusArray",
      "outputs": [
        {
          "name": "id",
          "type": "uint256"
        },
        {
          "name": "content",
          "type": "string"
        },
        {
          "name": "completed",
          "type": "bool"
        }
      ],
      "payable": false,
      "stateMutability": "view",
      "type": "function",
      "signature": "0x31083c35"
    },
    {
      "constant": true,
      "inputs": [],
      "name": "exodusCount",
      "outputs": [
        {
          "name": "",
          "type": "uint256"
        }
      ],
      "payable": false,
      "stateMutability": "view",
      "type": "function",
      "signature": "0xf272981e"
    },
    {
      "inputs": [],
      "payable": false,
      "stateMutability": "nonpayable",
      "type": "constructor",
      "signature": "constructor"
    },
    {
      "anonymous": false,
      "inputs": [
        {
          "indexed": false,
          "name": "id",
          "type": "uint256"
        },
        {
          "indexed": false,
          "name": "content",
          "type": "string"
        },
        {
          "indexed": false,
          "name": "completed",
          "type": "bool"
        }
      ],
      "name": "ExodusCreated",
      "type": "event",
      "signature": "0xda9c69875c8bda438cb662aeb1b1ec3345465461e7b73b80eabef4ea3ce1b955"
    },
    {
      "anonymous": false,
      "inputs": [
        {
          "indexed": false,
          "name": "id",
          "type": "uint256"
        },
        {
          "indexed": false,
          "name": "completed",
          "type": "bool"
        }
      ],
      "name": "ExodusCompleted",
      "type": "event",
      "signature": "0xc307b46956092b7b032ee91ff3d43bc0e144e7db2efb6077ddcd6a5dfdb5dfdd"
    },
    {
      "constant": false,
      "inputs": [
        {
          "name": "_content",
          "type": "string"
        }
      ],
      "name": "createExodus",
      "outputs": [],
      "payable": false,
      "stateMutability": "nonpayable",
      "type": "function",
      "signature": "0x3fa00ba9"
    },
    {
      "constant": false,
      "inputs": [
        {
          "name": "_id",
          "type": "uint256"
        }
      ],
      "name": "toggleCompleted",
      "outputs": [],
      "payable": false,
      "stateMutability": "nonpayable",
      "type": "function",
      "signature": "0x455f5024"
    }
  ],
  "bytecode": "0x60806040526000805534801561001457600080fd5b50610089606060405190810160405280602781526020017f546865206675747572652069732064697374726962757465642062792074686581526020017f2068756d616e730000000000000000000000000000000000000000000000000081525061008e640100000000026401000000009004565b610279565b600080815480929190600101919050555060606040519081016040528060005481526020018281526020016000151581525060016000805481526020019081526020016000206000820151816000015560208201518160010190805190602001906100fa9291906101d4565b5060408201518160020160006101000a81548160ff0219169083151502179055509050507fda9c69875c8bda438cb662aeb1b1ec3345465461e7b73b80eabef4ea3ce1b955600054826000604051808481526020018060200183151515158152602001828103825284818151815260200191508051906020019080838360005b8381101561019557808201518184015260208101905061017a565b50505050905090810190601f1680156101c25780820380516001836020036101000a031916815260200191505b5094505050505060405180910390a150565b828054600181600116156101000203166002900490600052602060002090601f016020900481019282601f1061021557805160ff1916838001178555610243565b82800160010185558215610243579182015b82811115610242578251825591602001919060010190610227565b5b5090506102509190610254565b5090565b61027691905b8082111561027257600081600090555060010161025a565b5090565b90565b610713806102886000396000f3fe60806040526004361061005c576000357c01000000000000000000000000000000000000000000000000000000009004806331083c35146100615780633fa00ba914610127578063455f5024146101ef578063f272981e1461022a575b600080fd5b34801561006d57600080fd5b5061009a6004803603602081101561008457600080fd5b8101908080359060200190929190505050610255565b604051808481526020018060200183151515158152602001828103825284818151815260200191508051906020019080838360005b838110156100ea5780820151818401526020810190506100cf565b50505050905090810190601f1680156101175780820380516001836020036101000a031916815260200191505b5094505050505060405180910390f35b34801561013357600080fd5b506101ed6004803603602081101561014a57600080fd5b810190808035906020019064010000000081111561016757600080fd5b82018360208201111561017957600080fd5b8035906020019184600183028401116401000000008311171561019b57600080fd5b91908080601f016020809104026020016040519081016040528093929190818152602001838380828437600081840152601f19601f820116905080830192505050505050509192919290505050610324565b005b3480156101fb57600080fd5b506102286004803603602081101561021257600080fd5b810190808035906020019092919050505061046a565b005b34801561023657600080fd5b5061023f610618565b6040518082815260200191505060405180910390f35b6001602052806000526040600020600091509050806000015490806001018054600181600116156101000203166002900480601f0160208091040260200160405190810160405280929190818152602001828054600181600116156101000203166002900480156103075780601f106102dc57610100808354040283529160200191610307565b820191906000526020600020905b8154815290600101906020018083116102ea57829003601f168201915b5050505050908060020160009054906101000a900460ff16905083565b6000808154809291906001019190505550606060405190810160405280600054815260200182815260200160001515815250600160008054815260200190815260200160002060008201518160000155602082015181600101908051906020019061039092919061061e565b5060408201518160020160006101000a81548160ff0219169083151502179055509050507fda9c69875c8bda438cb662aeb1b1ec3345465461e7b73b80eabef4ea3ce1b955600054826000604051808481526020018060200183151515158152602001828103825284818151815260200191508051906020019080838360005b8381101561042b578082015181840152602081019050610410565b50505050905090810190601f1680156104585780820380516001836020036101000a031916815260200191505b5094505050505060405180910390a150565b61047261069e565b600160008381526020019081526020016000206060604051908101604052908160008201548152602001600182018054600181600116156101000203166002900480601f0160208091040260200160405190810160405280929190818152602001828054600181600116156101000203166002900480156105345780601f1061050957610100808354040283529160200191610534565b820191906000526020600020905b81548152906001019060200180831161051757829003601f168201915b505050505081526020016002820160009054906101000a900460ff161515151581525050905080604001511581604001901515908115158152505080600160008481526020019081526020016000206000820151816000015560208201518160010190805190602001906105a992919061061e565b5060408201518160020160006101000a81548160ff0219169083151502179055509050507fc307b46956092b7b032ee91ff3d43bc0e144e7db2efb6077ddcd6a5dfdb5dfdd82826040015160405180838152602001821515151581526020019250505060405180910390a15050565b60005481565b828054600181600116156101000203166002900490600052602060002090601f016020900481019282601f1061065f57805160ff191683800117855561068d565b8280016001018555821561068d579182015b8281111561068c578251825591602001919060010190610671565b5b50905061069a91906106c2565b5090565b60606040519081016040528060008152602001606081526020016000151581525090565b6106e491905b808211156106e05760008160009055506001016106c8565b5090565b9056fea165627a7a72305820fa70454c4365c881208dfc9f122cc2ddfe275ccb86d9a9d85515266c2f4f4ced0029",
  "source": "pragma solidity ^0.5.0;\n\ncontract ExodusList {\n  uint public exodusCount = 0;\n  //number of exits from web\n\n  struct Exodus {\n    uint id;\n    string content;\n    //each exit will contain an exit message\n    bool completed;\n  }\n\n  mapping(uint => Exodus) public exodusArray;\n\n  event ExodusCreated(\n    uint id,\n    string content,\n    bool completed\n  );\n\n  event ExodusCompleted(\n    uint id,\n    bool completed\n  );\n\n  constructor() public {\n    createExodus(\"The future is distributed by the humans\");\n  }\n  function createExodus(string memory _content) public {\n    exodusCount ++;\n    exodusArray[exodusCount] = Exodus(exodusCount, _content, false);\n    emit ExodusCreated(exodusCount, _content, false);\n  }\n\n  function toggleCompleted(uint _id) public {\n    Exodus memory _exodus = exodusArray[_id];\n    //allocate memory to assign local variable of Exodus struct type\n    _exodus.completed = !_exodus.completed;\n    exodusArray[_id] = _exodus;\n    emit ExodusCompleted(_id, _exodus.completed);\n  }\n}",
  "sourcePath": "/Users/yvevestaltitan/Exodus/contracts/ExodusList.sol",
  "compiler": {
    "name": "solc",
    "version": "0.5.1+commit.c8a2cb62.Emscripten.clang"
  },
  "schemaVersion": "3.0.1",
  "updatedAt": "2020-05-02T02:47:45.554Z",
  "devdoc": {
    "methods": {}
  },
  "userdoc": {
    "methods": {}
  }
}