{
  "contractName": "ExodusList",
  "abi": [
    {
      "constant": true,
      "inputs": [
        {
          "name": "",
          "type": "uint256"
        }
      ],
      "name": "exodusArray",
      "outputs": [
        {
          "name": "id",
          "type": "uint256"
        },
        {
          "name": "content",
          "type": "string"
        },
        {
          "name": "completed",
          "type": "bool"
        }
      ],
      "payable": false,
      "stateMutability": "view",
      "type": "function",
      "signature": "0x31083c35"
    },
    {
      "constant": true,
      "inputs": [],
      "name": "exodusCount",
      "outputs": [
        {
          "name": "",
          "type": "uint256"
        }
      ],
      "payable": false,
      "stateMutability": "view",
      "type": "function",
      "signature": "0xf272981e"
    },
    {
      "inputs": [],
      "payable": false,
      "stateMutability": "nonpayable",
      "type": "constructor",
      "signature": "constructor"
    },
    {
      "anonymous": false,
      "inputs": [
        {
          "indexed": false,
          "name": "id",
          "type": "uint256"
        },
        {
          "indexed": false,
          "name": "content",
          "type": "string"
        },
        {
          "indexed": false,
          "name": "completed",
          "type": "bool"
        }
      ],
      "name": "ExodusCreated",
      "type": "event",
      "signature": "0xda9c69875c8bda438cb662aeb1b1ec3345465461e7b73b80eabef4ea3ce1b955"
    },
    {
      "anonymous": false,
      "inputs": [
        {
          "indexed": false,
          "name": "id",
          "type": "uint256"
        },
        {
          "indexed": false,
          "name": "completed",
          "type": "bool"
        }
      ],
      "name": "ExodusCompleted",
      "type": "event",
      "signature": "0xc307b46956092b7b032ee91ff3d43bc0e144e7db2efb6077ddcd6a5dfdb5dfdd"
    },
    {
      "constant": false,
      "inputs": [
        {
          "name": "_content",
          "type": "string"
        }
      ],
      "name": "createExodus",
      "outputs": [],
      "payable": false,
      "stateMutability": "nonpayable",
      "type": "function",
      "signature": "0x3fa00ba9"
    },
    {
      "constant": false,
      "inputs": [
        {
          "name": "_id",
          "type": "uint256"
        }
      ],
      "name": "toggleCompleted",
      "outputs": [],
      "payable": false,
      "stateMutability": "nonpayable",
      "type": "function",
      "signature": "0x455f5024"
    }
  ],
  "bytecode": "0x60806040526000805534801561001457600080fd5b50610089606060405190810160405280602781526020017f546865206675747572652069732064697374726962757465642062792074686581526020017f2068756d616e730000000000000000000000000000000000000000000000000081525061008e640100000000026401000000009004565b610279565b600080815480929190600101919050555060606040519081016040528060005481526020018281526020016000151581525060016000805481526020019081526020016000206000820151816000015560208201518160010190805190602001906100fa9291906101d4565b5060408201518160020160006101000a81548160ff0219169083151502179055509050507fda9c69875c8bda438cb662aeb1b1ec3345465461e7b73b80eabef4ea3ce1b955600054826000604051808481526020018060200183151515158152602001828103825284818151815260200191508051906020019080838360005b8381101561019557808201518184015260208101905061017a565b50505050905090810190601f1680156101c25780820380516001836020036101000a031916815260200191505b5094505050505060405180910390a150565b828054600181600116156101000203166002900490600052602060002090601f016020900481019282601f1061021557805160ff1916838001178555610243565b82800160010185558215610243579182015b82811115610242578251825591602001919060010190610227565b5b5090506102509190610254565b5090565b61027691905b8082111561027257600081600090555060010161025a565b5090565b90565b610719806102886000396000f3fe608060405260043610610062576000357c0100000000000000000000000000000000000000000000000000000000900463ffffffff16806331083c35146100675780633fa00ba91461012d578063455f5024146101f5578063f272981e14610230575b600080fd5b34801561007357600080fd5b506100a06004803603602081101561008a57600080fd5b810190808035906020019092919050505061025b565b604051808481526020018060200183151515158152602001828103825284818151815260200191508051906020019080838360005b838110156100f05780820151818401526020810190506100d5565b50505050905090810190601f16801561011d5780820380516001836020036101000a031916815260200191505b5094505050505060405180910390f35b34801561013957600080fd5b506101f36004803603602081101561015057600080fd5b810190808035906020019064010000000081111561016d57600080fd5b82018360208201111561017f57600080fd5b803590602001918460018302840111640100000000831117156101a157600080fd5b91908080601f016020809104026020016040519081016040528093929190818152602001838380828437600081840152601f19601f82011690508083019250505050505050919291929050505061032a565b005b34801561020157600080fd5b5061022e6004803603602081101561021857600080fd5b8101908080359060200190929190505050610470565b005b34801561023c57600080fd5b5061024561061e565b6040518082815260200191505060405180910390f35b6001602052806000526040600020600091509050806000015490806001018054600181600116156101000203166002900480601f01602080910402602001604051908101604052809291908181526020018280546001816001161561010002031660029004801561030d5780601f106102e25761010080835404028352916020019161030d565b820191906000526020600020905b8154815290600101906020018083116102f057829003601f168201915b5050505050908060020160009054906101000a900460ff16905083565b60008081548092919060010191905055506060604051908101604052806000548152602001828152602001600015158152506001600080548152602001908152602001600020600082015181600001556020820151816001019080519060200190610396929190610624565b5060408201518160020160006101000a81548160ff0219169083151502179055509050507fda9c69875c8bda438cb662aeb1b1ec3345465461e7b73b80eabef4ea3ce1b955600054826000604051808481526020018060200183151515158152602001828103825284818151815260200191508051906020019080838360005b83811015610431578082015181840152602081019050610416565b50505050905090810190601f16801561045e5780820380516001836020036101000a031916815260200191505b5094505050505060405180910390a150565b6104786106a4565b600160008381526020019081526020016000206060604051908101604052908160008201548152602001600182018054600181600116156101000203166002900480601f01602080910402602001604051908101604052809291908181526020018280546001816001161561010002031660029004801561053a5780601f1061050f5761010080835404028352916020019161053a565b820191906000526020600020905b81548152906001019060200180831161051d57829003601f168201915b505050505081526020016002820160009054906101000a900460ff161515151581525050905080604001511581604001901515908115158152505080600160008481526020019081526020016000206000820151816000015560208201518160010190805190602001906105af929190610624565b5060408201518160020160006101000a81548160ff0219169083151502179055509050507fc307b46956092b7b032ee91ff3d43bc0e144e7db2efb6077ddcd6a5dfdb5dfdd82826040015160405180838152602001821515151581526020019250505060405180910390a15050565b60005481565b828054600181600116156101000203166002900490600052602060002090601f016020900481019282601f1061066557805160ff1916838001178555610693565b82800160010185558215610693579182015b82811115610692578251825591602001919060010190610677565b5b5090506106a091906106c8565b5090565b60606040519081016040528060008152602001606081526020016000151581525090565b6106ea91905b808211156106e65760008160009055506001016106ce565b5090565b9056fea165627a7a72305820cd09e55e196e3f1e6012497d304293bf9f7a380fb76c19f6fe03f9840cd593b40029",
  "source": "pragma solidity ^0.5.0;\n\ncontract ExodusList {\n  uint public exodusCount = 0;\n  //number of exits from web\n\n  struct Exodus {\n    uint id;\n    string content;\n    //each exit will contain an exit message\n    bool completed;\n  }\n\n  mapping(uint => Exodus) public exodusArray;\n\n  event ExodusCreated(\n    uint id,\n    string content,\n    bool completed\n  );\n\n  event ExodusCompleted(\n    uint id,\n    bool completed\n  );\n\n  constructor() public {\n    createExodus(\"The future is distributed by the humans\");\n  }\n  function createExodus(string memory _content) public {\n    exodusCount ++;\n    exodusArray[exodusCount] = Exodus(exodusCount, _content, false);\n    emit ExodusCreated(exodusCount, _content, false);\n  }\n\n  function toggleCompleted(uint _id) public {\n    Exodus memory _exodus = exodusArray[_id];\n    //allocate memory to assign local variable of Exodus struct type\n    _exodus.completed = !_exodus.completed;\n    exodusArray[_id] = _exodus;\n    emit ExodusCompleted(_id, _exodus.completed);\n  }\n}",
  "sourcePath": "/Users/yvevestaltitan/Exodus/contracts/ExodusList.sol",
  "compiler": {
    "name": "solc",
    "version": "0.5.0+commit.1d4f565a.Emscripten.clang"
  },
  "schemaVersion": "3.0.1",
  "updatedAt": "2020-04-30T06:43:39.008Z",
  "devdoc": {
    "methods": {}
  },
  "userdoc": {
    "methods": {}
  }
}